:020000040800F2
:10000000000E0020C52A00082D1300082F13000839
:1000100033130008371300083B13000800000000EA
:100020000000000000000000000000003F13000876
:1000300041130008000000004313000845130008A6
:10004000DF2A0008DF2A0008DF2A0008DF2A00086C
:10005000DF2A0008DF2A0008DF2A0008DF2A00085C
:10006000DF2A0008DF2A0008DF2A0008DF2A00084C
:10007000DF2A0008DF2A0008DF2A0008DF2A00083C
:10008000DF2A0008DF2A0008DF2A0008DF2A00082C
:10009000DF2A0008DF2A0008DF2A0008DF2A00081C
:1000A000DF2A0008DF2A0008DF2A0008DF2A00080C
:1000B000DF2A00089F090008DF2A0008DF2A00085D
:1000C000DF2A0008DF2A0008DF2A0008DF2A0008EC
:1000D000DF2A0008DF2A0008DF2A0008DF2A0008DC
:1000E000DF2A0008DF2A0008DF2A0008DF2A0008CC
:1000F000DF2A0008DF2A0008DF2A0008DF2A0008BC
:10010000DF2A0008DF2A0008DF2A0008DF2A0008AB
:10011000DF2A0008DF2A0008DF2A0008DF2A00089B
:10012000DF2A0008DF2A0008DF2A0008DF2A00088B
:1001300000F002F800F05EF80AA090E8000C82449B
:100140008344AAF10107DA4501D100F053F8AFF278
:10015000090EBAE80F0013F0010F18BFFB1A43F0A5
:10016000010318471C3D00003C3D000010F8013B16
:100170000A4413F0030408BF10F8014B1D1108BF17
:1001800010F8015B641E05D010F8016B641E01F8C5
:10019000016BF9D1002D15D010F8014B03F00C03C1
:1001A0000C2BA1EB04040ABF10F8013BA4EB831451
:1001B000A4EB032405F1010314F8016B5B1E01F8A5
:1001C000016BF9D5914238BF10F8013BD1D370478C
:1001D0000023002400250026103A28BF78C1FBD850
:1001E000520728BF30C148BF0B6070471FB51FBD05
:1001F00010B510BD03F009F81146FFF7F7FF00F046
:1002000095FF03F027F803B4FFF7F2FF03BC03F0F8
:100210002BF8000010B588B004460121480302F015
:100220008DFF40F23F60ADF808000120ADF80400FA
:100230000020ADF80A00ADF806008DF80C0001A909
:10024000FE4801F07DFB6020ADF810000120ADF804
:1002500012000020ADF81400ADF81800ADF81A0037
:10026000ADF81C00ADF81E00204603F083F880B204
:10027000ADF8160004A9F14801F0E1FB0821EF48B0
:1002800001F0F3FF0121ED4801F0B6FE0121EB483A
:1002900001F0BEFE08B010BD70B588B006460C4631
:1002A00015460121084602F056FF40F23F60ADF8C6
:1002B00008000120ADF804000020ADF80A00ADF8F8
:1002C00006008DF80C0001A94FF0804001F038FBCA
:1002D0006020ADF810000120ADF812000020ADF84C
:1002E0001400ADF81800ADF81A00ADF81C00ADF818
:1002F0001E00304603F03EF880B2ADF8160004A9A7
:100300004FF0804001F09BFB0821C80601F0ADFFD3
:10031000204603F02FF880B2ADF8160004A94FF084
:10032000804001F0D9FB0821C80601F0ABFF284648
:1003300003F020F880B2ADF8160004A94FF0804019
:1003400001F015FC0821C80601F0A5FF012188076E
:1003500001F052FE08B070BD30B587B005460C46BE
:100360000121042002F0F7FE40F23F60ADF80400E6
:100370000120ADF800000020ADF80600ADF8020045
:100380008DF808006946AE4801F0DAFA6020ADF851
:100390000C000120ADF80E000020ADF81000ADF803
:1003A0001400ADF81600ADF81800ADF81A00284694
:1003B00002F0E0FF80B2ADF8120003A9A04801F0FE
:1003C0008BFB08219E4801F05DFF204602F0D2FF22
:1003D00080B2ADF8120003A9994801F0C8FB0821CA
:1003E000974801F058FF0121954801F005FE07B03C
:1003F00030BD08B501211C2002F0A0FE0E20ADF892
:10040000000018208DF8030003208DF802006946D3
:100410008C4802F0D7FB4FF44070ADF80000182074
:100420008DF8030003208DF802006946864802F02B
:10043000C9FB8020ADF8000018208DF803000320D0
:100440008DF802006946814802F0BCFB08BD1FB56B
:100450000121022002F07FFE40F23F60ADF808006B
:100460000120ADF804000020ADF80A00ADF8060048
:1004700001A9774801F064FA01221146744801F09D
:10048000D6FD0121724801F0B7FD1D208DF8000056
:1004900002208DF8010000208DF8020001208DF867
:1004A0000300684602F08BF81FBD70B504460E4687
:1004B00026B10421674802F032FC03E004216548BC
:1004C00002F02FFC4FF48051604802F02AFC002516
:1004D00015E080215C4802F024FC04F0800020B18B
:1004E0004021594802F01BFC03E04021564802F02D
:1004F00018FC8021544802F012FC64006D1C082D89
:10050000E7D34FF48051514802F009FC70BD70B53B
:10051000002416E004F1B0000021FFF7C6FF00211F
:100520000846FFF7C2FF00211020FFF7BEFF00259D
:1005300004E001210020FFF7B8FF6D1C802DF8D3E7
:10054000641C082CE6D370BD002005E0002100E00B
:10055000491C6429FCDD401C3F4A9042F6DD70478F
:1005600070B504460D4605F1B0000021FFF79DFF70
:10057000C4F3031141F010000021FFF796FF04F0CF
:100580000F000021FFF791FF70BD2DE9F0410746F4
:100590000E46904600250024A8F12000C5B27F2F0A
:1005A00001D90027B61C31463846FFF7D9FF002491
:1005B00008E004EB0511294A505C0121FFF775FFA3
:1005C000601CC4B2082CF4DB711C3846FFF7C8FF6E
:1005D000002409E004EB05110831204A505C012198
:1005E000FFF763FF601CC4B2082CF3DBBDE8F081A9
:1005F00010B50246012000E050430B00A1F10101BB
:10060000FAD110BD2DE9FF5F074691461D460E9EAB
:100610004FF0000A002441E0281B411E0A20FFF78A
:10062000E7FFB9FBF0F00A21B0FBF1F201FB120881
:10063000BAF1000F25D1681EA04211E0003401403C
:100640000008004000080140000C0140001001407B
:100650000004004000140140A08601008E3800080C
:100660000FD9B8F1000F0AD1B34606EBDB71491080
:1006700001FB047020220199FFF787FF0DE04FF086
:10068000010AB34606EBDB71491001FB047008F167
:1006900030020199FFF779FF00BF641CAC42BBD365
:1006A000BDE8FF9F08B54FF48051FD4802F037FBCD
:1006B0004FF40061FA4802F034FB4FF48061F848CF
:1006C00002F02FFB4FF40071F54802F02AFB4FF4C3
:1006D0008071F34802F009FBA0B10720F149F24A0A
:1006E000126841F82200F0480068401CEE4908609A
:1006F0000C2001230722002100902020FFF782FF19
:10070000FFF722FF4FF40071E84802F0EEFAA0B1C3
:100710000820E449E44A126841F82200E2480068EF
:10072000401CE14908600C200123082200210090B0
:100730002020FFF767FFFFF707FF4FF48071DB48CA
:1007400002F0D3FAA0B10921D648D74A126840F87E
:100750002210D5480068401CD34908600C200123B2
:100760000922002100902020FFF74CFFFFF7ECFE4C
:100770004021CE4802F0B9FA4FF40061C84802F0B7
:10078000CEFA4FF48051C64802F0CBFA4FF48061A4
:10079000C34802F0C6FA4FF40071C14802F0C1FA32
:1007A0004FF48071BE4802F0A0FAA0B10420BD4908
:1007B000BD4A126841F82200BB480068401CBA4993
:1007C00008600C2001230422002100902020FFF764
:1007D00019FFFFF7B9FE4FF40071B44802F085FA33
:1007E000A0B10520AF49B04A126841F82200AE48D6
:1007F0000068401CAC4908600C2001230522002140
:1008000000902020FFF7FEFEFFF79EFE4FF4807160
:10081000A64802F06AFAA0B10620A249A24A1268CC
:1008200041F82200A0480068401C9F4908600C2045
:1008300001230622002100902020FFF7E3FEFFF7AE
:1008400083FE4021994802F050FA4FF480619448A9
:1008500002F065FA4FF48051914802F062FA4FF4C9
:1008600000618F4802F05DFA4FF400718C4802F08D
:1008700058FA4FF480718A4802F037FAA0B101218A
:100880008848894A126840F8221087480068401C4E
:10089000854908600C2001231A4600210090202081
:1008A000FFF7B0FEFFF750FE4FF400717F4802F0F3
:1008B0001CFAA0B102207B497B4A126841F8220051
:1008C00079480068401C784908600C200123022206
:1008D000002100902020FFF795FEFFF735FE4FF432
:1008E0008071724802F001FAA0B103206D496E4A8E
:1008F000126841F822006C480068401C6A49086090
:100900000C2001230322002100902020FFF77AFE13
:10091000FFF71AFE4021654802F0E7F94FF4007135
:100920005F4802F0FCF94FF480515D4802F0F9F99C
:100930004FF400615A4802F0F4F94FF480615848CE
:1009400002F0EFF94FF48071554802F0CEF94FF400
:100950000071564802F0C9F9A0B100205149524A2D
:10096000126841F8220050480068401C4E49086057
:100970000C2001230022114600902020FFF742FEA8
:10098000FFF7E2FD4FF48071484802F0AEF94021D4
:10099000464802F0AAF908B1FFF7B9FD08BD70B5E5
:1009A0000121434801F0F1FD002878D001214048A1
:1009B00001F0FCFDFFF776FE3E493F4A126851F810
:1009C000220002F0F7FC06463C480168304602F07F
:1009D00009FD05463A4902F04FFC044602F0AEFC20
:1009E000384908603349384A126851F8220002F049
:1009F000E1FC064631480168304602F0F3FC05464A
:100A00002F4902F039FC044602F098FC2F49086097
:100A100028492F4A126851F8220002F0CBFC064602
:100A200026480168304602F0DDFC0546244902F004
:100A300023FC044602F082FC264908602148008815
:100A400081B24FF0804001F071FD2048008881B2F2
:100A50004FF0804001F06CFD1E48008881B24FF0DD
:100A6000804001F067FD1349134A126851F82200D3
:100A700002F0A0FC064618480168304602F0B2FCBD
:100A800005460F4902F0F8FB044602F057FC0D49F9
:100A9000086008490C4A126851F822001EE07DE007
:100AA000000801407C0700204C0700200010014096
:100AB0000004004000000020080700201407002068
:100AC000000048441C0700200C07002020070020DD
:100AD00010070020240700201807002002F06AFCFD
:100AE0000646FE480168304602F07CFC0546FC499B
:100AF00002F0C2FB044602F021FCFA490860FA4900
:100B0000FA4A126851F8220002F054FC0646F348F3
:100B10000168304602F066FC0546F14902F0ACFB84
:100B2000044602F00BFCF2490860F248008881B2EA
:100B3000F14801F0FBFCEB48008881B2EF4801F07E
:100B4000F7FCEB48008881B2EC4801F0F3FCEC487C
:100B50000068401CEA490860EA480068401CE9490E
:100B60000860E2480068401CE0490860E44800680A
:100B7000B0F5E17F02D10020E1490860E14800685A
:100B8000B0F5E17F02D10020DE490860D748006857
:100B9000B0F5E17F02D10020D449086070BD014664
:100BA00005E0962200E0521E002AFCD1491E0029D1
:100BB000F7D1704710B500218D20FFF776FC00219A
:100BC0001420FFF772FC0021AF20FFF76EFC10BD70
:100BD00010B500218D20FFF768FC00211020FFF7E1
:100BE00064FC0021AE20FFF760FC10BD2DE9F04150
:100BF00004460F46154600260EE0AA5D39462046FB
:100C0000FFF7C3FC04F10800C4B2782C02DD002415
:100C1000B81CC7B2701CC6B2A85D0028EDD1BDE8F3
:100C2000F08108B50121382002F088FA10208DF8F3
:100C30000300E020ADF8000003208DF802006946B3
:100C4000B14801F0BFFF10208DF803000420ADF87B
:100C5000000003208DF802006946AC4801F0B2FFA5
:100C600010208DF803000002ADF8000003208DF87D
:100C700002006946A64801F0A5FF08BD10B5FFF7C0
:100C8000D0FF8021A04802F04AF84FF48051A048DC
:100C900002F045F820219C4802F041F86420FFF75B
:100CA0007EFF2021984802F03CF86420FFF777FF90
:100CB0002021954802F033F80021AE20FFF7F5FB24
:100CC00000210220FFF7F1FB00211020FFF7EDFBD0
:100CD00000214020FFF7E9FB00218120FFF7E5FB21
:100CE0000021CF20FFF7E1FB0021A120FFF7DDFB72
:100CF0000021C820FFF7D9FB0021A620FFF7D5FB74
:100D00000021A820FFF7D1FB00213F20FFF7CDFBFA
:100D10000021D320FFF7C9FB00210846FFF7C5FBE0
:100D20000021D520FFF7C1FB00218020FFF7BDFB8C
:100D30000021D920FFF7B9FB0021F120FFF7B5FB17
:100D40000021DA20FFF7B1FB00211220FFF7ADFBF5
:100D50000021DB20FFF7A9FB00214020FFF7A5FBC6
:100D600000212020FFF7A1FB00210220FFF79DFBBF
:100D700000218D20FFF799FB00211420FFF795FB40
:100D80000021A420FFF791FB0021A620FFF78DFB97
:100D90000021AF20FFF789FB0021AF20FFF785FB83
:100DA000FFF7B5FB00210846FFF7DAFB10BD08B5D9
:100DB0000121084602F0B5F901214FF4017002F05B
:100DC000BDF9F020ADF8000000208DF803000320ED
:100DD0008DF8020069464F4801F0F4FE08BD00B5E9
:100DE00091B04D4801F054FC4C4806904C48079097
:100DF000002008900420099000200A9080200B9089
:100E000040000C9080000D9020200E9000020F906A
:100E10000020109006A9404801F0DCFC01213E486A
:100E200001F003FD0020019001208DF808008DF8ED
:100E300009004FF4602003900020049004208DF8F6
:100E4000140001A935484C3800F0A5FA4FF4404091
:100E500002F0D8F802230122042130484C3800F077
:100E600032FB02231A4605212C484C3800F02BFB9C
:100E700002230322062129484C3800F024FB0223D8
:100E80000422072125484C3800F01DFB012123488E
:100E90004C3800F0B7FA012120484C3800F0A7FA8E
:100EA0001E484C3800F0C5FA00BF1C484C3800F012
:100EB000C5FA0028F9D119484C3800F0C9FA00BF2A
:100EC00016484C3800F0C9FA0028F9D1012113481E
:100ED0004C3800F0CCFA11B000BD0000180700201B
:100EE00000004844200700200000002010070020D8
:100EF000240700201C0700200034014000080040A7
:100F0000080700200C070020000C014000140140DD
:100F10000010014000080140080002404C2401403C
:100F200028070020F0B50020002100220023002423
:100F30000DE0DE4D2D882844DC4D6D882944DB4DC5
:100F4000AD882A44D94DED882B44651CECB2042CA5
:100F5000EFDB8008890892089B0840F6E44545438A
:100F6000280B40F6E4454D43290B40F6E445554334
:100F70002A0B40F6E4455D432B0BCD4D2860CD4D4B
:100F80002960CD4D2A60CD4D2B604FF47A75B0FBB2
:100F9000F5F5CB4E357035462D7805EB4506C6EB9D
:100FA000C515A0EBC5056426B5FBF6F5C54E357035
:100FB000C34D2D7805EB4506C6EBC515A0EBC50561
:100FC000C04E367806EBC60707EB0616A5EB86057E
:100FD0000A26B5FBF6F5BC4E35704FF47A75B1FBB9
:100FE000F5F5BA4E357035462D7805EB4506C6EB5E
:100FF000C515A1EBC5056426B5FBF6F5B44E3570F5
:10100000B24D2D7805EB4506C6EBC515A1EBC50520
:10101000AF4E367806EBC60707EB0616A5EB86053E
:101020000A26B5FBF6F5AB4E35704FF47A75B2FB78
:10103000F5F5A94E357035462D7805EB4506C6EB1E
:10104000C515A2EBC5056426B5FBF6F5A34E3570B4
:10105000A14D2D7805EB4506C6EBC515A2EBC505E0
:101060009E4E367806EBC60707EB0616A5EB8605FF
:101070000A26B5FBF6F59A4E35704FF47A75B3FB38
:10108000F5F5984E357035462D7805EB4506C6EBDF
:10109000C515A3EBC5056426B5FBF6F5924E357074
:1010A000904D2D7805EB4506C6EBC515A3EBC505A0
:1010B0008D4E367806EBC60707EB0616A5EB8605C0
:1010C0000A26B5FBF6F5894E3570F0BD08B501214D
:1010D000142002F033F84FF4F050ADF80000032074
:1010E0008DF8020010208DF803006946804801F059
:1010F00069FD4FF48070ADF8000003208DF8020008
:1011000004208DF803006946794801F05BFD4FF437
:101110005070ADF8000003208DF8020004208DF817
:1011200003006946734801F04DFD08BD08B500BFD6
:1011300000BFFFF78CF9FFF73AFEFFF750FEFFF70D
:101140009DFDFFF7E4F9FFF7C1FFFFF752F96A4988
:10115000086802F02FF90446FFF75CF86649D1F8F9
:10116000AC0402F027F904466349D1F8540202F0B6
:1011700021F905462146FFF7EFF85F49D1F8AC04A5
:1011800002F018F904465C49D1F8540202F012F951
:1011900005465949086802F00DF9064622462946D7
:1011A000FFF77AF855A200210846FFF71FFD56A267
:1011B00002210020FFF71AFD56A204210020FFF7AC
:1011C00015FD57A206210020FFF710FD6DE0FFF787
:1011D000A9FE0C200123009039480278002120202C
:1011E000FFF710FA0C200123009036480278002106
:1011F0003020FFF707FA0C200123009032480278D4
:1012000000213820FFF7FEF90C20012300902F4821
:10121000027802212020FFF7F5F90C20012300902D
:101220002B48027802213020FFF7ECF90C20012333
:1012300000902848027802213820FFF7E3F90C20BB
:10124000012300902448027804212020FFF7DAF9D6
:101250000C20012300902148027804213020FFF760
:10126000D1F90C20012300901D4802780421382078
:10127000FFF7C8F90C20012300901A4802780621D4
:101280002020FFF7BFF90C200123009016480278B8
:1012900006213020FFF7B6F90C20012300901348F7
:1012A000027806213820FFF7ADF990E728070020E3
:1012B0003C0700204007002044070020480700208A
:1012C00030070020310700203207002033070020BC
:1012D000340700203507002036070020370700209C
:1012E00038070020390700203A0700203B0700207C
:1012F00000080140001001400000002075313D2031
:10130000302E30300000000075323D20302E30305D
:101310000000000075333D20302E3030000000000A
:1013200075343D20302E303000000000704700BF83
:10133000FEE700BFFEE700BFFEE700BFFEE7704725
:10134000704770477047000010B50446FA48844261
:1013500008D10121401501F00BFF0021601501F0BB
:1013600007FF17E0F548844208D10121001501F07C
:10137000FFFE0021201501F0FBFE0BE0F048844247
:1013800008D10121C80301F0F3FE00214FF4004011
:1013900001F0EEFE10BD30B502460020002350687B
:1013A000E84C20400D790C6844EA05242043506045
:1013B0009068E54C2040D1E902542C434D7944EA31
:1013C000450420439060D06A20F470000C7C641EB9
:1013D000E4B2234340EA0350D06230BD00210160F3
:1013E000017141718160C16001210174704721B1B7
:1013F000826842F00102826003E0826822F001020A
:101400008260704721B1826842F48072826003E09A
:10141000826822F480728260704710B50023CBB2DC
:101420001AB144681C43446002E044689C43446031
:1014300010BD816841F008018160704701460020BD
:101440008A6802F008020AB1012000E0002070471B
:10145000816841F0040181607047014600208A687C
:1014600002F004020AB1012000E00020704721B11F
:10147000826842F4A002826003E0826822F4A00243
:1014800082607047014600208A6802F480020AB137
:10149000012000E00020704710B50A46002100231B
:1014A000416821F46041531E41EA4331416010BD5F
:1014B00021B1426842F40062426003E0426822F4D3
:1014C000006242607047F0B504460D4600200021DE
:1014D000092D11DDE068A5F10A0606EB460707268F
:1014E00006FA07F18843A5F10A0606EB460603FA59
:1014F00006F10843E0600CE0206905EB450707268C
:1015000006FA07F1884305EB450603FA06F108439E
:101510002061072A0FDA606B561E06EB86071F262E
:1015200006FA07F18843561E06EB860605FA06F111
:101530000843606322E00D2A0FDA206BD61F06EB0A
:1015400086071F2606FA07F18843D61F06EB860694
:1015500005FA06F10843206310E0E06AA2F10D06E7
:1015600006EB86071F2606FA07F18843A2F10D064F
:1015700006EB860605FA06F10843E062F0BD21B1EC
:10158000826842F48012826003E0826822F4801252
:10159000826070470146C86C80B2704766484C3024
:1015A0000068704721B1426842F48062426003E003
:1015B000426822F480624260704721B1426842F47E
:1015C0008052426003E0426822F4805242607047D9
:1015D0000A460021816821F4E0411143816070478F
:1015E00021B1826842F40042826003E0826822F402
:1015F00000428260704721B1826842F40212826028
:1016000003E0826822F402128260704701460020E3
:101610008A6802F400120AB1012000E0002070473D
:10162000F0B504461546002000220026092911DDE8
:10163000E068A1F10A0707EB470C072707FA0CF24D
:101640009043A1F10A0707EB470703FA07F210439B
:10165000E0600CE0206901EB410C072707FA0CF26F
:10166000904301EB410703FA07F210432061A06B9E
:10167000C0F30156EF1C06F1010CA7EB0C0707EBBA
:10168000870C1F2707FA0CF29043EF1C06F1010CA0
:10169000A7EB0C0707EB870701FA07F21043A063DB
:1016A000F0BD10B50A4600210023816B21F44011E2
:1016B000531E41EA0351816310BD08B50023009316
:1016C0000090009B0B440093009B1A6008BD08B576
:1016D000024600200090009201F12800009B18446F
:1016E00000900098006880B208BD0A460021416859
:1016F000164B194011434160704741628262704746
:101700000A460021416821F01F01114341607047E2
:1017100040B109490831096841F40001064A08321C
:10172000116007E004490831096821F40001024A08
:101730000832116070470000002401400028014079
:10174000003C0140FFFEF0FFFDF7F1FFFFFD3FFF12
:101750000246002013680B400BB1012000E000207E
:101760007047CA430260704770B5024600200023EC
:1017700000240B125568CEB205EA060415681D4018
:1017800015B10CB1012000E0002070BD00220A124A
:10179000D34303607047000010B50446FE488442FE
:1017A00008D10121C01401F0E3FC0021E01401F094
:1017B000DFFCC4E0B4F1804F08D10121084601F0FC
:1017C000E4FC0021012001F0E0FCB8E0F348844291
:1017D00008D10121022001F0D8FC0021022001F0F3
:1017E000D4FCACE0EE48844208D10121042001F091
:1017F000CCFC0021042001F0C8FCA0E0E9488442B0
:1018000008D10121082001F0C0FC0021082001F0CE
:10181000BCFC94E0E448844208D10121102001F08E
:10182000B4FC0021102001F0B0FC88E0DF488442C5
:1018300008D10121202001F0A8FC0021202001F086
:10184000A4FC7CE0DA48844208D10121401401F074
:101850008FFC0021601401F08BFC70E0D5488442BD
:1018600009D10121C80401F083FC00214FF40020BC
:1018700001F07EFC63E0D048844209D101210805D3
:1018800001F076FC00214FF4801001F071FC56E06D
:10189000CA48844209D10121480501F069FC0021B0
:1018A0004FF4001001F064FC49E0C548844208D1BF
:1018B0000121402001F069FC0021402001F065FC7D
:1018C0003DE0C048844208D10121802001F05DFC48
:1018D0000021802001F059FC31E0BB48844208D14E
:1018E0000121801501F051FC0021A01501F04DFCF3
:1018F00025E0B648844209D10121080401F038FCF2
:1019000000214FF4803001F033FC18E0B0488442ED
:1019100009D10121480401F02BFC00214FF40030D3
:1019200001F026FC0BE0AB48844208D10121880479
:1019300001F01EFC00214FF4802001F019FC10BDC5
:1019400000220288944B98420ED0994B98420BD0BB
:10195000B0F1804F08D0914B984205D0904B9842FF
:1019600002D0904B984204D14FF68F731A404B88A7
:101970001A438D4B984207D08C4B984204D04FF6B7
:10198000FF431A40CB881A4302808B8883850B88DB
:101990000385814B98420BD0854B984208D08B4BE6
:1019A000984205D08A4B984202D08A4B984201D186
:1019B0000B7A038601238382704770B500240022CE
:1019C0000023058C4FF6FE7635400584028C838813
:1019D000048B4FF68F752C40B51E2C400D882C4380
:1019E000751E2A400D892A434D882A436A4DA84214
:1019F0000BD06F4DA84208D0744DA84205D0744D4D
:101A0000A84202D0734DA84213D14FF6F7752A4071
:101A10004D892A434FF6FB752A408D882A434FF69D
:101A2000FF652B404FF6FF552B408D892B43CD8909
:101A30002B4383800483CD888586028470BD70B576
:101A4000002400220023058C4FF6EF7635400584F4
:101A5000028C8388048B48F6FF752C404FF6FF45B7
:101A60002C400D884FF6FF7606EA05252C434FF6ED
:101A7000DF752A400D8906EA05152A434D8806EAD6
:101A800005152A43444DA84202D0494DA8421DD114
:101A90004FF67F752A404D894FF6FF7606EA051509
:101AA0002A434FF6BF752A408D8806EA05152A435A
:101AB0004FF6FF352B404FF2FF752B408D8906EA1C
:101AC00085052B43CD8906EA85052B438380048356
:101AD000CD880587028470BD70B5002400220023E4
:101AE000058C4FF6FF6635400584028C8388848B15
:101AF0004FF68F752C404FF6FC752C400D882C430B
:101B00004FF6FF552A400D894FF6FF7606EA052568
:101B10002A434D8806EA05252A431F4DA84202D0D4
:101B2000234DA8421DD14FF2FF752A404D894FF633
:101B3000FF7606EA05252A434FF6FF352A408D88B1
:101B400006EA05252A434EF6FF752B404DF6FF7534
:101B50002B408D8906EA05152B43CD8906EA05152C
:101B60002B4383808483CD888587028470BD70B5C4
:101B7000002200230024058C4EF6FF7635400584B4
:101B8000038C8488828B48F6FF752A404FF6FF4508
:101B90002A400D8820E00000002C01400004004095
:101BA00000080040000C00400010004000140040FD
:101BB00000340140004C01400050014000540140FD
:101BC00000180040001C0040002000400040014080
:101BD00000440140004801404FF6FF7606EA052523
:101BE0002A434DF6FF752B400D8906EA05352B4338
:101BF0004D8806EA05352B43FA4DA84202D0FA4D2E
:101C0000A84208D14BF6FF752C408D894FF6FF7620
:101C100006EA85152C4384808283CD88A0F8405045
:101C2000038470BD828B4FF2FF331A408283828B14
:101C30004FF6FF7303EA01231A4382837047F0B51E
:101C40000C461546002200210026078C4EF6FF7C2C
:101C500007EA0C070784828B018C4FF6FF7707EAAF
:101C6000043640F6FF473A404FF6FF7707EA05276C
:101C70003A434FF6FF7707EA03373A43D94FB84262
:101C80000ED0D94FB8420BD0B0F1804F08D0D74F0B
:101C9000B84205D0D64FB84202D0D64FB84206D18E
:101CA0004DF6FF77394046F48057394305E047F653
:101CB000FF57394044F48057394382830184F0BD93
:101CC000828B4FF6F3731A408283828B0A4382839E
:101CD0007047F0B50C461546002200210026078CFF
:101CE0004FF6FF6C07EA0C070784828B018C4FF6D6
:101CF000FF7707EA04264FF60C773A404FF6FF7756
:101D000007EA03172F433A43B64FB8420ED0B64FF7
:101D1000B8420BD0B0F1804F08D0B44FB84205D0D4
:101D2000B34FB84202D0B34FB84206D14FF6FF5777
:101D3000394046F48077394305E04FF2FF57394088
:101D400044F48077394382830184F0BD028B4FF2E3
:101D5000FF331A400283028B4FF6FF7303EA01231D
:101D60001A4302837047F0B50C4615460022002145
:101D70000026078C4FF6EF7C07EA0C070784028BDE
:101D8000018C4FF6FF7707EA041640F6FF473A400A
:101D90004FF6FF7707EA03373A434FF6FF7707EA34
:101DA00005273A438F4FB8420ED08F4FB8420BD021
:101DB000B0F1804F08D08D4FB84205D08C4FB8425B
:101DC00002D08C4FB84206D14FF6DF77394046F04B
:101DD0001007394305E04FF65F77394044F01007AC
:101DE000394302830184F0BD028B4FF6F3731A402E
:101DF0000283028B0A4302837047F0B50C461546F6
:101E000000220021068C4FF6FE773E400684028BAE
:101E1000018C4FF60C7632407E1C06EA03162E43E8
:101E20003243704EB0420ED06F4EB0420BD0B0F184
:101E3000804F08D06D4EB04205D06D4EB04202D0FA
:101E40006C4EB04206D14FF6FD76314044F00106AB
:101E5000314305E04FF6F576314044F00106314359
:101E600002830184F0BD70B505460C465D4885428D
:101E70000ED05D4885420BD0B5F1804F08D05B484D
:101E8000854205D05A48854202D05A48854200D141
:101E900000E000BF208850B92389A28861882846C5
:101EA000FFF7ABFFE1882846FFF79EFF25E020887B
:101EB00004280AD12389A28861882846FFF753FFA6
:101EC000E1882846FFF742FF17E0208808280AD15A
:101ED0002389A28861882846FFF7FBFEE18828460F
:101EE000FFF7EEFE09E02389A28861882846FFF704
:101EF000A6FEE1882846FFF795FE70BD2DE9F0416A
:101F000005460C4600260127608808B9022600E035
:101F10000026A088012801D1022700E0012720889F
:101F2000A0B92389A28861882846FFF766FFE18867
:101F30002846FFF759FF23893A4631462846FFF7DE
:101F400012FFE1882846FFF701FF13E02389A288EA
:101F500061882846FFF707FFE1882846FFF7F6FE6D
:101F600023893A4631462846FFF747FFE18828464D
:101F7000FFF73AFFBDE8F0810A884B881A438B8847
:101F80001A43CB881A430B891A434B891A438B890E
:101F90001A43A0F8442070474FF6FF71818000215A
:101FA0000180C18041800172704700210180418021
:101FB0008180C180018141818181C181704700217F
:101FC00001804180012181800021C1800181704711
:101FD0000021018041808180C18001814181818116
:101FE00070470000002C0140003401400004004014
:101FF00000080040000C004021B1028842F00102BC
:10200000028004E002884FF6FE731A400280704797
:1020100031B1B0F8442042F40042A0F8442005E079
:10202000B0F84420C2F30E02A0F8442070471AB161
:1020300083890B43838102E083898B4383817047CB
:102040008182704741EA0203A0F8483070471AB114
:1020500083890B43838102E083898B4383817047AB
:1020600001894FF6F8721140018170470A4600213C
:1020700001894FF68F73194011430181704730B5C4
:1020800004460D4629462046FFF7F0FF208940F020
:102090000700208130BD2DE9F04104460D4616466B
:1020A0001F46602D06D13B46012231462046FFF7F0
:1020B0005AFE05E03B46012231462046FFF79DFED1
:1020C00029462046FFF7D2FF208940F007002081F3
:1020D000BDE8F08130B50C4600210189C9B24FF648
:1020E000FF7505EA0325154325432943018130BDCA
:1020F0002DE9F04105460E46174698460024434612
:102100003A4631462846FFF7E5FF2C894FF6F8702E
:10211000044044F007044FF68F70044044F070040C
:102120002C81BDE8F081F0B504460D4616461F46E9
:102130003B46324629462046FFF7CCFF208940F433
:1021400080402081F0BD0185828270470A460021CF
:1021500001884FF68F731940114301807047F0B525
:102160000C4615461E460021002200230189028BE1
:10217000038C4FF6F877394021434FF6FC473A403D
:1021800040F201173A434FF6DD773B404FF6FF77B9
:1021900007EA06172F433B43018102830384F0BD06
:1021A0000A460021018B4FF68F73194011430183BA
:1021B00070470A460021018B48F6FF7319404FF61D
:1021C000FF7303EA02231943018370470A46002183
:1021D000818B4FF68F7319401143818370470A46F4
:1021E0000021818B48F6FF7319404FF6FF7303EA15
:1021F000022319438183704721B1028842F0800293
:10220000028004E002884FF67F731A400280704714
:1022100021B1828842F00402828004E082884FF675
:10222000FB731A408280704721B1828842F0080215
:10223000828004E082884FF6F7731A4082807047EC
:1022400021B1828842F00102828004E082884FF648
:10225000FE731A40828070470A460021018B4FF6B8
:10226000F77319401143018370470A460021018B1F
:102270004FF2FF7319404FF6FF7303EA022319432D
:10228000018370470A460021818B4FF6F77319408E
:102290001143818370470A460021818B4FF2FF73FF
:1022A00019404FF6FF7303EA0223194381837047F5
:1022B0000A460021018B4FF6FB731940114301833D
:1022C00070470A460021018B4FF6FF3319404FF645
:1022D000FF7303EA02231943018370470A46002172
:1022E000818B4FF6FB7319401143818370470A4677
:1022F0000021818B4FF6FF3319404FF6FF7303EA3D
:1023000002231943818370470A460021018B4FF64F
:102310007F7319401143018370470A460021018BE6
:10232000C1F30E014FF6FF7303EA02231943018341
:1023300070470A460021818B4FF67F731940114385
:10234000818370470A460021818BC1F30E014FF64D
:10235000FF7303EA02231943818370470A46002171
:10236000018C4FF6FD7319401143018470470A46F2
:102370000021018C4FF6F773194011430184704717
:102380000A460021018C4FF6DF7319404FF6FF73A8
:1023900003EA02131943018470470A460021018CA5
:1023A0004FF67F7319404FF6FF7303EA0213194388
:1023B000018470470A460021018C4FF6FF531940F3
:1023C0004FF6FF7303EA02231943018470470A465C
:1023D0000021018C4FF2FF7319404FF6FF7303EA9F
:1023E00002231943018470470A460021018C4DF6EF
:1023F000FF7319404FF6FF7303EA02331943018458
:10240000704730B5002301248C40A3B2048C9C4358
:102410000484048C02FA01F5ADB22C43048430BD6F
:1024200030B5002304248C40A3B2048C9C43048464
:10243000048C02FA01F5ADB22C43048430BD70B5B2
:102440000346002000241846183001258D40ACB208
:102450001D8CA5431D8409B1082909D100EB610039
:10246000056825F0700505600568154305600EE0F8
:102470000D1FC5F34E052844056825F4E0450560A9
:1024800005684FF6FF7606EA02263543056070BD03
:1024900021B1028842F00202028004E002884FF675
:1024A000FD731A400280704721B1028842F0040295
:1024B000028004E002884FF6FB731A4002807047E6
:1024C00021B1828842F08002828004E082884FF647
:1024D0007F731A408280704702884FF6F7731A4064
:1024E000028002880A430280704782884FF68F7309
:1024F0001A40828082880A438280704702894FF6A0
:10250000F8731A40028102890A43028170470289E6
:102510004FF67F731A40028102890A430281704795
:102520008184704781857047818670470187704735
:1025300081877047A0F84010704702884FF6FF432C
:102540001A40028002880A43028070470146888E42
:1025500070470146088F70470146888F70470146D3
:10256000B1F8400070470146888C70470146088DDD
:10257000704702460020138A0B400BB1012000E097
:1025800000207047CA430282704730B502460020DF
:1025900000230024158A05EA0103958905EA010450
:1025A00013B10CB1012000E0002030BDCA4302820B
:1025B0007047000031490143314A1160704770B5DE
:1025C000002100230F22C47804B32D4C246804F4A6
:1025D000E064C4F5E064210AC1F10403CA40447810
:1025E00004FA03F18478144021430901254C06784C
:1025F000A155047804F01F050124AC4005786D1145
:10260000AD0005F1E025C5F8004109E0047804F0CB
:102610001F050124AC401C4D0678761145F8264074
:1026200070BD1A4A0A400243154B1B1F1A607047BF
:1026300039B1134A121D12680243114B1B1D1A6057
:1026400006E00F4A121D126882430D4B1B1D1A60D3
:102650007047042808D14FF0E021096941F00401D6
:102660004FF0E022116107E04FF0E021096921F00D
:1026700004014FF0E0221161704700000000FA05EC
:102680000CED00E000E400E080E100E080FFFF1FCF
:1026900001684FF6FE721140016000210160416047
:1026A0008160C1608D49884208D18C4908394968E8
:1026B00041F00F01894A083A51608AE08749143194
:1026C000884208D185490839496841F0F001834AB8
:1026D000083A51607DE081492831884208D17F491C
:1026E0000839496841F470617C4A083A516070E0E9
:1026F0007A493C31884208D178490839496841F41F
:102700007041764A083A516063E07449503188421A
:1027100008D172490839496841F470216F4A083A72
:10272000516056E06D496431884208D16B490839DF
:10273000496841F47001694A083A516049E06749C3
:102740007831884208D165490839496841F070619B
:10275000624A083A51603CE06149884206D1011F53
:10276000096841F00F01021F116032E05C49143129
:10277000884208D15A49091F096841F0F001584AB6
:10278000121F116025E056492831884208D154496A
:10279000091F096841F47061514A121F116018E065
:1027A0004F493C31884208D14D49091F096841F41D
:1027B00070414B4A121F11600BE049495031884269
:1027C00007D14749091F096841F47021444A121F83
:1027D0001160704710B50022026847F6F0739A4303
:1027E0000C6A8B6823430C6923434C6923438C692F
:1027F0002343CC6923434C6A23438C6A23431A4303
:102800000260CB6843600B6883604B68C36010BD97
:102810000021016041608160C160016141618161AD
:10282000C161016241628162704721B1026842F078
:102830000102026004E002684FF6FE731A40026073
:1028400070471AB103680B43036002E003688B43CF
:1028500003607047416070470146486880B2704726
:1028600001460020002201F080531BB11C4B083BA5
:102870001A6802E0194B083B1A6802EA01030BB11F
:10288000012000E00020704700F0805119B1144988
:10289000091F086002E01149083948607047014685
:1028A0000020002201F080531BB10D4B083B1A6839
:1028B00002E00A4B083B1A6802EA01030BB101204F
:1028C00000E00020704700F0805119B10449091F51
:1028D000086002E00149083948607047080002407A
:1028E000080402400CB50020019000906C4800687C
:1028F00040F480306A49086000BF6948006800F40D
:10290000003000900198401C0190009818B901987F
:10291000B0F5A06FF1D16248006800F4003010B14A
:102920000120009001E0002000900098012843D190
:102930005C48006840F010005A490860084600688A
:1029400020F0030008600846006840F002000860BC
:102950005348406852494860084640684860084605
:10296000406840F4806048600846406820F47C106D
:1029700048600846406840F4E8104860084600682F
:1029800040F08070086000BF4548006800F00070AB
:102990000028F9D04248406820F0030040494860D0
:1029A0000846406840F00200486000BF3C4840686C
:1029B00000F00C000828F9D10CBD10B5FFF792FF0C
:1029C00010BD10B53648006840F001003449086079
:1029D0000846406834490840314948600846006864
:1029E000324908402E4908600846006820F48020DB
:1029F00008600846406820F4FE0048604FF41F005D
:102A00008860FFF7DAFF4FF000602949086010BDC9
:102A100010B5002100200022214B5B6803F00C015F
:102A200021B1042906D0082928D107E0214B224CE6
:102A3000236027E01F4B204C236023E0184B5B688A
:102A400003F47010164B5B6803F48032022303EB2F
:102A5000904022B9194B4343174C23600DE0104BB3
:102A60005B6803F4003323B1144B4343124C2360DF
:102A700003E0104B4343104C236003E00D4B0E4C1E
:102A8000236000BF00BF064B5B68C3F303130C4C0D
:102A9000E15C094B1B68CB40074C236010BD000074
:102AA00000100240002002400000FFF8FFFFF6FE89
:102AB00008ED00E000127A005407002000093D00F4
:102AC000580700200948804709480047FEE7FEE70D
:102AD000FEE7FEE7FEE7FEE7FEE7FEE7FEE7FEE7CE
:102AE00004480549054A064B70470000C329000801
:102AF0003101000800080020000E0020000A00201C
:102B0000000A002010B50446CC48844208D10121B7
:102B1000042000F02DFB0021042000F029FB46E0FA
:102B2000C748844208D10121082000F021FB002180
:102B3000082000F01DFB3AE0C248844208D1012180
:102B4000102000F015FB0021102000F011FB2EE0FA
:102B5000BD48844208D10121202000F009FB00215A
:102B6000202000F005FB22E0B848844208D1012172
:102B7000402000F0FDFA0021402000F0F9FA16E0B4
:102B8000B348844208D10121802000F0F1FA0021ED
:102B9000802000F0EDFA0AE0AE48844207D101211E
:102BA000801500F0E5FA0021A01500F0E1FA10BD53
:102BB00010B50121084600F0DBFA0021012000F0E9
:102BC000D7FA10BD2DE9F04102460025002600206D
:102BD00000230024002791F803C00CF00F0591F8A2
:102BE00003C00CF0100CBCF1000F03D091F802C030
:102BF0004CEA050591F800C0BCF1000F31D0146813
:102C000000202BE04FF0010C0CFA00F3B1F800C0EB
:102C10000CEA03069E4220D183004FF00F0C0CFA01
:102C200003F7BC4305FA03FC4CEA040491F803C023
:102C3000BCF1280F06D14FF0010C0CFA00FCC2F8D1
:102C400014C00AE091F803C0BCF1480F05D14FF061
:102C5000010C0CFA00FCC2F810C0401C0828D1D3AB
:102C60001460B1F800C0BCF1FF0F34DD54680020DF
:102C70002EE000F1080C4FF0010808FA0CF3B1F84F
:102C800000C00CEA03069E4221D183004FF00F0CD6
:102C90000CFA03F7BC4305FA03FC4CEA040491F870
:102CA00003C0BCF1280F05D100F1080C08FA0CF89C
:102CB000C2F8148091F803C0BCF1480F07D100F1AD
:102CC000080C4FF0010808FA0CF8C2F81080401CFC
:102CD0000828CED35460BDE8F0814FF6FF71018023
:102CE000022181700421C170704702460020936860
:102CF0000B400BB1012000E00020704701468868BE
:102D000080B2704702460020D3680B400BB101200F
:102D100000E0002070470146C86880B2704701613A
:102D20007047416170470AB1016100E0416170473D
:102D3000C16070474FF480320A43826181618261D1
:102D400082698269704702460020434B18684FF63B
:102D50008073184040EA021008433F4B18607047E8
:102D60003E49C8617047F0B50A460023002400219F
:102D7000002500F00046B6F1004F02D1364EF16951
:102D800001E0354E7168C0F3034583B200F440168C
:102D9000B6F5401F08D121F070612F4E766826F0FD
:102DA00070662D4F7E6012E000F48016B6F5801F2D
:102DB00006D1032606FA05F4A14341F0706106E04E
:102DC000460D360103FA06F6B14341F0706122B1B7
:102DD000460D360103FA06F6314300F00046B6F11F
:102DE000004F02D11C4EF16101E01B4E7160F0BD3D
:102DF00030B500228B071C0F0F2303FA04F2164B89
:102E000008338C1053F824309343134C08348D103E
:102E100044F8253023468C1053F824308C07240FB7
:102E200000FA04F423430C4C08348D1044F8253088
:102E300030BD0A49DC3108607047000000080140DD
:102E4000000C014000100140001401400018014036
:102E5000001C014000200140000001400000204211
:102E6000DF48006840F00100DD490860084640681E
:102E7000DC490840DA49486008460068DA490840F9
:102E8000D74908600846006820F48020086008469A
:102E9000406820F4FE0048604FF41F0088607047CF
:102EA000CF49096821F48031CD4A11601146096883
:102EB00021F480211160B0F5803F03D0B0F5802F60
:102EC0000ED106E0C649096841F48031C44A116058
:102ED00007E0C349096841F4A021C14A116000E03C
:102EE00000BF00BF704710B501460022002300203C
:102EF0004A11012A02D1BA4C236806E0022A02D103
:102F0000B74C236A01E0B64C636A01F01F0201244A
:102F100094401C400CB1012000E0002010BD38B5E9
:102F2000002000900024002500BF3120FFF7DBFFC8
:102F300005460098401C00900098B0F5A06F01D0A5
:102F4000002DF2D03120FFF7CEFF08B1012400E0C0
:102F50000024204638BD01460020A14A106820F018
:102F6000F80040EAC10010607047A049086070474F
:102F7000024600209A4B586820F47C1042EA010374
:102F80001843974B58607047984908667047014648
:102F90000020934A506820F00300084350607047B7
:102FA0008F48406800F00C007047014600208C4AB2
:102FB000506820F0F0000843506070470146002040
:102FC000874A506820F4E06008435060704701462B
:102FD0000020834A506820F4605040EAC1005060ED
:102FE000704729B17E4A527A02437D4B5A7204E0FF
:102FF0007B4A527A82437A4B5A7270477B49D83166
:103000000860704701460020754A506820F440402F
:103010000843506070470021714A20321170704A95
:1030200082F82010012802D004280AD104E00121EE
:103030006B4A2032117005E00521694A2032117077
:1030400000E000BF00BF70476949086070476449ED
:10305000096A0143624A1162704765494439086050
:10306000704730B500210022002400235C4D6D68BC
:1030700005F00C0121B1042905D0082923D105E070
:103080005C4D056022E05B4D05601FE0544D6D68AE
:1030900005F47012524D6D6805F48034022505EB7D
:1030A00092421CB9544D554305600BE04C4D6D6880
:1030B00005F400351DB1504D5543056002E04D4DFE
:1030C0005543056002E04B4D056000BF00BF444D15
:1030D0006D6805F0F0010909484D6B5C0568DD403D
:1030E00045603F4D6D6805F4E061090A434D6B5C36
:1030F0004568DD4085603A4D6D6805F46051C90A48
:103100003E4D6B5C4568DD40C560354D6D6805F42E
:103110004041890B3A4D6B5CC568B5FBF3F5056121
:1031200030BD29B12E4A526902432D4B5A6104E049
:103130002B4A526982432A4B5A61704729B1284A67
:1031400092690243264B9A6104E0254A92698243C0
:10315000234B9A61704729B1214AD2690243204B1F
:10316000DA6104E01E4AD26982431D4BDA6170477E
:1031700029B11B4AD2680243194BDA6004E0184AAD
:10318000D2688243164BDA60704729B1144A12693B
:103190000243134B1A6104E0114A12698243104B37
:1031A0001A61704712494039086070470F49C86476
:1031B00070470B49C87170470948406A40F08070F9
:1031C00007494862704701460020054A92680A4054
:1031D0000AB1012000E00020704701498872704761
:1031E000001002400000FFF8FFFFF6FE0000424220
:1031F0008004424200127A0000093D006807002066
:1032000078070020704770477047754600F028F82F
:10321000AE4605006946534620F00700854618B0C3
:1032200020B5FFF75DFCBDE820404FF000064FF0F1
:1032300000074FF000084FF0000B21F00701AC46EB
:10324000ACE8C009ACE8C009ACE8C009ACE8C0090A
:103250008D4670470446AFF300802046FCF7D3FF4D
:1032600000487047A007002001491820ABBEFEE7C8
:10327000260002007047000090EA010F48BF81F06D
:10328000004100F18281421A3CBF801A89184FEA3E
:10329000D0524FF07F4C1CEA410FA2EBD15318BF24
:1032A0009CEA026F00F03B804FF0004C4CEA00209B
:1032B0004CEA012121FA03FC10EB0C0C1ED202F1A6
:1032C000FF325FEA1C2040EBC25038BF70471CF051
:1032D0007F0F4FEA400C18BFBCF17F4F38BF7047DB
:1032E000C3F12003994008BF20F00100BCF17F4FDB
:1032F00038BF7047A0F1C04000F03BB94FEA3C0036
:10330000000A40EBC25028BF1CF0FF0F4FEA400CF0
:10331000E6D018BFBCF17F4F38BF7047EAE79CEAA0
:10332000026F05D010EA5C0F08BF00F00040704744
:1033300010B500F0D8F800BF64FBBE3E41000B0E94
:10334000D3F19E0208D950F400034FEA032323FA75
:1033500002F048BF4042704710B500F0C4F800BF0B
:1033600049922480002070476FF0004282EA2000DA
:1033700070470000C10DD1F19E0206DB4FEA002329
:1033800043F0004323FA02F07047004207D54FEAAA
:103390004001B1F1FE4F02D24FF00000704710B56E
:1033A00000F0A1F849922480002070476FEA2000C5
:1033B0007047000010F0004148BF4042B0FA80F36F
:1033C00010FA03F2C3F19D030BD051EAC35101EB94
:1033D0001220530638BF704700F1010008BF20F0EB
:1033E000010070474FF47F0C1CEAD0121EBF1CEA8C
:1033F000D11392EA0C0F93EA0C0F00F0478090EA89
:10340000010F48BF42F480724FF0004C4CEA00209C
:103410004CEA012102EB0302A0FB0113A2F500021A
:10342000002918BF43F001035B0028BF4FEA3303B4
:1034300042EB22425FEA132C4CEBC2502EBFBCEB96
:10344000436FB2F57C0F70474FEA036CBCF1004F3D
:1034500008BF20F00100B2F57C0F38BF70470BD5D4
:1034600082F0FF0212F5803FC8BF704700F1C040F4
:10347000D8BF00F00040704700F5000C5FEA4C0C2C
:1034800048BF7047B0F1C04000F073B890EA010F38
:103490000CEAD11348BF42F48072624538BF6345DD
:1034A00004D280EA010000F00040704710B500F03F
:1034B0001AF800BF8900013E00F007B800F009B813
:1034C0005FEA410C5FEA1C6C08D080EA010000F062
:1034D00050B85FEA400C5FEA1C6CF6D14FF0004038
:1034E000A0F5800070470EF1020E2EF0030E5EF87C
:1034F000044B244204D44FEA4102B2F17F4F11D869
:103500004FEA4003B3F17F4F0CD80ED14FEAD07C85
:10351000B2F17F4F0CEB4C0C0CF1020C08BF4CEBE2
:10352000D17C04E04FF0080C01E04FEAD17C0CEBB9
:103530004C0324FA03F404F00704B4F1040C06D29B
:103540000EEB840CBDE810404CF0010C6047DFE846
:103550000CF0070802024FF00040A0F5800010BDFB
:103560000846420018BFD2F1807288BF00F00040C8
:1035700010BDFF2141EAD050C005704790EA010F0D
:1035800048BF81F000413FF57EAE421A04D882F078
:103590000042A0EB020011444FEAD0524FF07F4CA2
:1035A0001CEA410FA2EBD15318BF9CEA026F4AD02C
:1035B0004FF0004C4CEA00204CEA012121FA03FCB8
:1035C000B0EB0C0C0FD412F0FE0F36D05FEA4C00BB
:1035D0001DD5001240EBC25038BF70471CF03F0FA2
:1035E00018BF70470BE0A2F101025FEA1C2040EB1C
:1035F000C25038BF70471CF07F0F18BF7047C3F12F
:103600002003994014BF401E20F00100704780083D
:103610004FEA122308BF7047B0FA80FCA2EB0C02FD
:10362000CCF1280C60FA0CF093EA122F04BF00EBE7
:10363000C25070474FEAC3707047130A5FEADC104C
:1036400008BF7047F6E79CEA026F04D010EA5C0FEF
:1036500008BF0020704710B5FFF745FF40DFF63E7A
:1036600081F0004070470000000000000000002FC3
:10367000000000000700070000147F147F140024DE
:103680002A7F2A120062640813230036495522500B
:1036900000000503000000001C2241000000412240
:1036A0001C000014083E08140008083E080800002A
:1036B00000A0600000080808080800006060000022
:1036C000002010080402003E5149453E0000427FA0
:1036D0004000004261514946002141454B310018EC
:1036E00014127F10002745454539003C4A494930AE
:1036F0000001710905030036494949360006494968
:10370000291E000036360000000056360000000872
:10371000142241000014141414140000412214084F
:1037200000020151090600324959513E007C121134
:10373000127C007F49494936003E41414122007FC9
:103740004141221C007F49494941007F0909090183
:10375000003E4149497A007F0808087F0000417F08
:103760004100002040413F01007F08142241007FBA
:1037700040404040007F020C027F007F0408107F21
:10378000003E4141413E007F09090906003E41518A
:10379000215E007F09192946004649494931000147
:1037A000017F0101003F4040403F001F2040201F9B
:1037B000003F4038403F006314081463000708705E
:1037C000080700615149454300007F414100005511
:1037D0002A552A55000041417F00000402010204DD
:1037E00000404040404000000102040000205454CA
:1037F0005478007F4844443800384444442000381A
:103800004444487F00385454541800087E0901028B
:103810000018A4A4A47C007F080404780000447D60
:103820004000004080847D00007F1028440000009C
:10383000417F4000007C04180478007C0804047870
:1038400000384444443800FC24242418001824245C
:1038500018FC007C08040408004854545420000458
:103860003F444020003C4040207C001C2040201C65
:10387000003C4030403C004428102844001CA0A0DC
:10388000A07C004464544C44141414141414000018
:103890000000000000000000000000000000000028
:1038A00000F80000000000000033300000000010AD
:1038B0000C06100C0600000000000000000040C0D4
:1038C0007840C0784000043F04043F0404000070C6
:1038D00088FC08300000001820FF211E0000F008BE
:1038E000F000E018000000211C031E211E0000F063
:1038F0000888700000001E212324192721101016AB
:103900000E000000000000000000000000000000A9
:1039100000E0180402000000000718204000000228
:103920000418E0000000004020180700000040409C
:1039300080F0804040000202010F010202000000FE
:1039400000F0000000000101011F01010100000062
:1039500000000000000080B07000000000000000C7
:103960000000000000000001010101010101000050
:1039700000000000000000303000000000000000E7
:10398000000080601804006018060100000000E0DC
:1039900010080810E000000F102020100F00001089
:1039A00010F8000000000020203F202000000070E0
:1039B00008080888700000302824222130000030D8
:1039C0000888884830000018202020110E000000D0
:1039D000C02010F8000000070424243F240000F851
:1039E0000888880808000019212020110E0000E036
:1039F000108888180000000F112020110E000038D8
:103A00000808C83808000000003F000000000070EF
:103A1000880808887000001C222121221C0000E078
:103A200010080810E0000000312222110F000000F1
:103A300000C0C000000000000030300000000000A6
:103A40000080000000000000806000000000000016
:103A500080402010080000010204081020004040AF
:103A600040404040400004040404040404000008F2
:103A700010204080000000201008040201000070A7
:103A800048080808F0000000003036010000C0308F
:103A9000C828E810E0000718272423140B000000B2
:103AA000C038E0000000203C23020227382008F83C
:103AB000888888700000203F202020110E00C03030
:103AC000080808083800071820202010080008F807
:103AD00008080810E000203F202020100F0008F800
:103AE0008888E8081000203F20202320180008F8CC
:103AF0008888E8081000203F200003000000C03044
:103B000008080838000007182020221E020008F8C4
:103B100008000008F808203F210101213F2000088B
:103B200008F8080800000020203F202000000000C6
:103B30000808F8080800C08080807F00000008F8AE
:103B400088C028180800203F20012638200008F8E7
:103B5000080000000000203F20202020300008F84E
:103B6000F800F8F80800203F003F003F200008F868
:103B700030C00008F808203F200007183F00E01080
:103B800008080810E0000F10202020100F0008F88F
:103B900008080808F000203F210101010000E010A2
:103BA00008080810E0000F18242438504F0008F8C7
:103BB000888888887000203F2000030C3020007027
:103BC0008808080838000038202121221C00180825
:103BD00008F8080818000000203F2000000008F83E
:103BE00008000008F808001F202020201F00087887
:103BF000880000C83808000007380E010000F808E7
:103C000000F80008F800033C0700073C0300081810
:103C100068808068180820302C03032C3020083876
:103C2000C800C83808000000203F2000000010082D
:103C30000808C83808002038262120201800000075
:103C400000FE020202000000007F40404000000C25
:103C500030C000000000000000010638C000000273
:103C60000202FE000000004040407F000000000013
:103C70000402020204000000000000000000000036
:103C80000000000000008080808080808080000232
:103C9000020400000000000000000000000000001E
:103CA0008080808000000019242222223F2008F812
:103CB000008080000000003F112020110E00000055
:103CC000008080800000000E1120202011000000E4
:103CD00000808088F800000E112020103F20000096
:103CE000808080800000001F22222222130000809A
:103CF00080F0888888180020203F202000000000E5
:103D0000808080808000006B94949493600008F819
:103D1000008080800000203F210000203F200080A4
:103D20009898000000000020203F202000000000A4
:103D300000809898000000C08080807F000008F814
:103D4000000080808000203F24022D3020000008E9
:103D500008F8000000000020203F202000008080A4
:103D6000808080808000203F20003F20003F8080B6
:103D7000008080800000203F210000203F200000C4
:103D8000808080800000001F202020201F00808075
:103D900000808000000080FFA12020110E000000A4
:103DA000008080808000000E112020A0FF80808095
:103DB00080008080800020203F2120000100000042
:103DC0008080808080000033242424241900008017
:103DD00080E0808000000000001F20200000808024
:103DE000000000808000001F202020103F208080E5
:103DF00080000080808000010E3008060100808075
:103E00000080008080800F300C030C300F00008099
:103E10008000808080000020312E0E3120008080C4
:103E200080000080808080818E70180601000080F4
:103E30008080808080000021302C22213000000012
:103E40000000807C020200000000003F40400000B3
:103E50000000FF00000000000000FF000000000262
:103E6000027C800000000040403F0000000000068F
:103E70000101020204040000000000000000000034
:103E8000A03E0008000000207C0700006C01000834
:103E9000D44200087C07002084060000D0010008FE
:103EA0001006060000001104121C0412270412322E
:103EB00004123D04124804125304125E04126A04F0
:103EC000127504128004128B0412960412A00412BC
:103ED000AB0412B60412C10412CC0412D70412E1CE
:103EE0000412EC0412F7581006010100000C041231
:103EF0001604122104122B04123504123F04124A34
:103F000004125404125E04126804127204127C0437
:103F1000128504128F0412990412A20412AC041226
:103F2000B50412BE0412C70412D10412DA0412E25C
:103F30000412EB0412F40412FD68100605020000DE
:103F40000E04121604121E04122604122E04123637
:103F500004123E04124604124D04125504125C046D
:103F6000126304126A04127104127804127F04129C
:103F70008604128C04129204129904129F0412A552
:103F80000412AB0412B00412B60412BB0412C10432
:103F900012C60412CB0412D00412D40412D9041293
:103FA000DD0412E20412E60412EA0412EE0412F234
:103FB0000412F50412F90412FC0412FFA813020300
:103FC000B01104120804120A04120D04120F041294
:103FD00011041213041215041216041218041219F3
:103FE00004121A04121B04121C04521D0402111E96
:103FF00004611C521C30521A405218505215605223
:104000001170520D80520890219852FFA852F9B8B1
:1040100052F2C852EAD852E2E852D9F856D00856BD
:10402000C61856BB2856B03856A548569958568CCF
:1040300068567F785671885663985655A85646B884
:104040005636C85626D85616E825F05AFD005AEBC3
:10405000105ADA205AC7305AB5405AA2505A8F60C7
:104060005A7C705A68805A54905A3FA05A2BB05AC2
:1040700016C029C85AF7D85AE1E85ACCF85EB608F3
:10408000035EA018035E8B28035E7538035E5E48EE
:10409000035E4858035E3268035E1C78032D80037C
:1040A0001006FAFFFFFFEF0412E40412D90412CE47
:1040B0000412C30412B80412AD0412A2041296042E
:1040C000128B04128004127504126A041260041226
:1040D0005504124A04123F04123404122904121F18
:1040E000041214041209581006FFFEFFFFF4041214
:1040F000EA0412DF0412D50412CB0412C10412B672
:104100000412AC0412A204129804128E0412840445
:10411000127B04127104126704125E04125404121A
:104120004B04124204123904122F04122604121EE8
:1041300004121504120C041203681006FBFDFFFFA5
:10414000F20412EA0412E20412DA0412D20412CACD
:104150000412C20412BA0412B30412AB0412A4046F
:10416000129D04129604128F041288041281041204
:104170007A04127404126E04126704126104125B52
:1041800004125504125004124A04124504123F044A
:10419000123A04123504123004122C0412270412AD
:1041A0002304121E04121A04121604121204120E10
:1041B00004120B041207041204041201A813FEFCDB
:1041C000B0110412F80412F60412F30412F10412EE
:1041D000EF0412ED0412EB0412EA0412E80412E7F1
:1041E0000412E60412E50412E40452E3040211E2AC
:1041F00004611C52E43052E64052E85052EB6052E7
:10420000EF7052F38052F89021985201A85207B8EB
:10421000520EC85216D8521EE85227F85630085689
:104220003A18564528565038565B485667585674C3
:1042300068568178568F88569D9856ABA856BAB85E
:1042400056CAC856DAD856EAE825F05A03005A1575
:10425000105A26205A39305A4B405A5E505A7160D3
:104260005A84705A98805AAC905AC1A05AD5B05A04
:10427000EAC029C85A09D85A1FE85A34F85E4A08D1
:10428000035E6018035E7528035E8B38035EA248E8
:10429000035EB858035ECE68035EE478032D8003A6
:1042A0001DAF064C04009500A406000A3685EB51AC
:1042B0003F8FC2353F00016004A24A040B60090130
:1042C000020304060708090C611000050002040639
:0442D00008000000E2
:0400000508002AC500
:00000001FF
